S01A000043696E7461436C61736966696361646F72612E73726563F6
S11300000C948D000C94AA000C94AA000C94AA00E1
S11300100C94AA000C94AA000C94AA000C94DB0281
S11300200C94AA000C94AA000C9436010C94AA0017
S11300300C94BC020C94AA000C94AA000C94AA0080
S11300400C9498020C94AA000C9400030C94AA003B
S11300500C94AA000C94AA000C94AA000C94AA0074
S11300600C94AA000C94AA00040416042B04400463
S11300705504630488044F05C70537050405C705FF
S1130080C705C705C705C705BB05C105C705C7051E
S1130090C705C705C705C705C705C7058E05C70535
S11300A0C705C7059D05C705C705C705C705C70516
S11300B0C705C705C705C705C705C705C705C705DC
S11300C0C705C705C705C705C705C705C705C705CC
S11300D0C705C705C705C705C705C705C705C705BC
S11300E0C705C705C705C705C705C705C705C705AC
S11300F0C705C705C705C705C705C705C705C7059C
S1130100C705C705C705C705C705C705C705C7058B
S1130110C705C705C705E704F50411241FBECFEFC3
S1130120D8E0DEBFCDBF11E0A0E0B1E0E6EAF8E13F
S113013002C005900D92AE30B107D9F724E0AEE0CD
S1130140B1E001C01D92AC34B207E1F70E94530A3A
S11301500C94510C0C94000084B1826084B984B175
S11301608E7F84B910928000E1E8F0E082E0808321
S1130170109285001092840080E286BBAFE6B0E066
S11301808C9180628C9380818064808308950F9326
S11301901F93809112018130A9F018F0823091F1FF
S11301A04CC085B1826085B90E94E8056093130153
S11301B070931401809315019093160181E080934C
S11301C012013BC00E94E805009113011091140133
S11301D0209115013091160160177107820793076A
S11301E061F185B18D7F85B982E0809312010E940F
S11301F0E80560930E0170930F01809310019093B2
S113020011011BC00E94E80500910E0110910F011D
S11302102091100130911101DC01CB01801B910B65
S1130220A20BB30B4F97A105B10538F01092120140
S1130230E1E8F0E08081806480831F910F9108954C
S113024080911701089580911701882359F0109225
S1130250170160911801709119017695679580E0F6
S113026090E008956FEF7FEFCB0108951F920F92F6
S11302700FB60F9211242F933F934F935F936F9375
S11302807F938F939F93AF93BF93EF93FF9380914B
S1130290810086FF1BC08091860090918700909317
S11302A01D0180931C0182E0809312010E94E805E5
S11302B060930E0170930F018093100190931101CC
S11302C0E1E8F0E080818F7B808320C0809186000C
S11302D09091870090931B0180931A0180911A01D9
S11302E090911B0120911C0130911D01821B930BE5
S11302F0909319018093180181E080931701109263
S11303001201E1E8F0E0808180648083FF91EF9145
S1130310BF91AF919F918F917F916F915F914F9119
S11303203F912F910F900FBE0F901F901895E09161
S11303301E01E03108F050C0F0E0EE0FFF1FEE0F99
S1130340FF1FEE0FFF1FE15EFE4F918380836283E8
S113035021E0238324831582168217828932910532
S113036081F42AB181E090E002C0880F991F6A9558
S1130370E2F7982F909592239AB99BB1892B8BB968
S113038024C08332910581F424B181E090E002C05D
S1130390880F991F6A95E2F7982F9095922394B944
S11303A095B1892B85B911C0869779F427B181E07D
S11303B090E002C0880F991F6A95E2F7982F9095F4
S11303C0922397B998B1892B88B980911E0191E045
S11303D0980F90931E0108958FEF089540E06AC02E
S11303E0242F30E0F901EE0FFF1FEE0FFF1FEE0F79
S11303F0FF1FE15EFE4FA081B1818C9190E00280ED
S113040002C0959587950A94E2F7817093818917C4
S113041009F445C0F901EE0FFF1FEE0FFF1FEE0FA9
S1130420FF1FE15EFE4F97819F5F9783933008F42F
S113043040C0F901EE0FFF1FEE0FFF1FEE0FFF1F6D
S1130440E15EFE4F9381948383831782913071F42C
S113045081110CC0220F331F220F331F220F331FB1
S1130460F901E15EFE4F81E0858323C0911121C033
S1130470F901EE0FFF1FEE0FFF1FEE0FFF1FE15EEE
S1130480FE4F83818130A9F4220F331F220F331FC3
S1130490220F331FF901E15EFE4F86830AC0220F4B
S11304A0331F220F331F220F331FF901E15EFE4F6A
S11304B017824F5F80911E01481708F491CF089569
S11304C090911E01891768F4E82FF0E0EE0FFF1FEA
S11304D0EE0FFF1FEE0FFF1FE15EFE4F85811582B9
S11304E0089580E0089590911E01891768F4E82F1B
S11304F0F0E0EE0FFF1FEE0FFF1FEE0FFF1FE15E98
S1130500FE4F86811682089580E0089590911E0121
S1130510891760F4E82FF0E0EE0FFF1FEE0FFF1FC6
S1130520EE0FFF1FE15EFE4F8381089581E0089581
S11305301F920F920FB60F9211242F933F934F9354
S11305405F936F937F938F939F93AF93BF93EF9337
S1130550FF930E94B70BFF91EF91BF91AF919F91D1
S11305608F917F916F915F914F913F912F910F9058
S11305700FBE0F901F9018951F920F920FB60F92F7
S113058011248F939F93EF93FF93809108038160CD
S113059080930803EAE8F0E080819181805E914BCA
S11305A091838083FF91EF919F918F910F900FBE64
S11305B00F901F9018951F920F920FB60F9211244F
S11305C08F939F93AF93BF9380919F019091A001CC
S11305D0A091A101B091A2010196A11DB11D80932A
S11305E09F019093A001A093A101B093A201BF9198
S11305F0AF919F918F910F900FBE0F901F90189500
S11306001F920F920FB60F9211242F938F939F93E3
S1130610AF93BF93EF93FF939091C600E7EDF2E0A1
S1130620A081B181838121E0280F2383A80FB11D0C
S11306309C93958183818923838395B180E2892763
S113064085B9FF91EF91BF91AF919F918F912F91B8
S11306500F900FBE0F901F90189514BC82E085BDBB
S113066016BC81E080936E00089582E08093B00010
S113067084E08093B10089EF8093B300E0E7F0E079
S11306808081826080830895FC011582A081B181FC
S1130690838191E0980F9383A80FB11D85E58C9316
S11306A0848193819823A081B18181E0890F838320
S11306B0A90FB11D8EE48C93848193819823A0812A
S11306C0B18181E0890F8383A90FB11D85E48C93E7
S11306D0848193819823A081B18181E0890F8383F0
S11306E0A90FB11D82E58C93848193819823A08105
S11306F0B18181E0890F8383A90FB11D4F5F4C93B2
S1130700848193819823A081B18181E0890F8383BF
S1130710A90FB11D8AE38C93848193819823A081CE
S1130720B18181E0890F8383A90FB11D6C939481FA
S113073083819823938395814927642786E38627B9
S113074085830895FC01A081B181838191E0980F94
S11307509383A80FB11D6C93948183819823938311
S11307608581862785830895CF93DF93FC011092BA
S113077019031BC0A081B181838191E0980F9383F9
S1130780A80FB11D88818C938481938189238383ED
S11307908091190391E0980F90931903DB01A80F3E
S11307A0B11D8C9195818927858380911903EB0173
S11307B0C80FD11D88818111DDCF8581DF91CF9153
S11307C00895FC019481690F958169236483A08154
S11307D0B181A60FB11D8C91640F692364830895C0
S11307E0DC0113963C91139790E4CBC01896EC91DE
S11307F018974E2F50E04730510508F0B3C0FA0166
S1130800EC5CFF4F0C94310CED91FC911197E80FC7
S1130810F11D8081853509F0A8C081E018968C937C
S1130820189785E019968C9319979FC0ED91FC91C8
S11308301197E80FF11D90819E3429F482E01896F7
S11308408C93189792C018961C9218978150129600
S11308508C9312978AC0ED91FC911197E80FF11DCA
S11308609081953429F483E018968C9318977DC071
S113087018961C921897815012968C93129775C0F3
S1130880ED91FC911197E80FF11D9081923529F4B7
S113089084E018968C93189768C018961C92189741
S11308A0815012968C93129760C0ED91FC91119730
S11308B0E80FF11D808117968C93179785E01896A1
S11308C08C93189752C0ED91FC911197E80FF11D8C
S11308D090819A33A9F496E018969C9318978F5FA9
S11308E015969C911597892314968C9314971796B3
S11308F09C91179786E3892716968C93169735C093
S113090018961C921897815012968C9312972DC0AA
S113091017969C911797915017969C931797992324
S113092071F0ED91FC911197E80FF11D80811696FD
S11309309C911697892716968C93169716C018962D
S11309401C921897ED91FC911197E80FF11D90817D
S113095016968C911697981308C081E01A968C937A
S11309601A9703C018961C92189712968C91129796
S11309708F5F15969C911597892312968C931297E5
S1130980922F12968C911297381721F02FEF290F7E
S113099091112CCF08950F931F93CF93DF938C0164
S11309A0EB01DC01ED91FC91119714968C91E80F09
S11309B0F11D6081862F90E0FC01E05AF109E235D7
S11309C0F10508F0E4C0E55CFF4F0C94310C42E003
S11309D060EFCE010E9444036DE0CE010E94A203A9
S11309E06D81CE010E94A203DEC04CE061EFCE0116
S11309F00E94440361E071E0CE010E94B4036D8162
S1130A00CE010E94A203CFC045E063EACE010E945A
S1130A104403209148043091490440914A04509180
S1130A204B04AAE3B0E00E94370C60932703709351
S1130A3028038093290390932A0307E213E0CE014D
S1130A400E94A203F8016181CE010E94A203D80191
S1130A5012966C91CE010E94A203F8016381CE012B
S1130A600E94A2036D81CE010E94A2039CC042E0B9
S1130A7062EACE010E9444036DE0CE010E94A2030B
S1130A806D81CE010E94A20340E061E0C8010E9492
S1130A90E103682F8091D6020E94860B84C047E050
S1130AA060EACE010E944403809147040E948602BA
S1130AB090E007E213E0682FD8018D939C93CE0158
S1130AC00E94A203F8016181CE010E94A2038091D9
S1130AD047040E94860290E0682FD8018D939C936E
S1130AE0CE010E94A203F8016181CE010E94A203FB
S1130AF0809147040E94860290E0682FD8018D936C
S1130B009C93CE010E94A203F8016181CE010E9450
S1130B10A2036D81CE010E94A20345C042E063EBB3
S1130B20CE010E94440360911C03CE010E94A203E3
S1130B306D81CE010E94A20336C0409135034F5F00
S1130B4067EBCE010E94440310E00CC0E091330334
S1130B50E10FE770F0E0E55DFC4F6081CE010E949B
S1130B60A2031F5F80913503181780F36D81CE01B6
S1130B700E94A20318C08091080380618093080337
S1130B8012C0809108038F7E809308030CC042E05A
S1130B90CE010E9444036FEFCE010E94A2036D8137
S1130BA0CE010E94A203DF91CF911F910F9108956E
S1130BB0E0ECF0E02081226020839093C5008093D4
S1130BC0C40088E98093C10086E08093C200089540
S1130BD0F89460919F017091A0018091A10190917E
S1130BE0A201789408950F931F93CF93DF93EC01A0
S1130BF08B010E94E805688379838A839B831D8324
S1130C000C8381E08E83DF91CF911F910F91089522
S1130C100F931F93CF93DF93EC018E8181110AC050
S1130C2081E08E830E94E805688379838A839B83AD
S1130C3080E01EC00E94E805088119812A813B8159
S1130C40AB01BC01401B510B620B730B8C819D816A
S1130C50A0E0B0E0481759076A077B0740F00E94FC
S1130C60E805688379838A839B8381E001C080E0FF
S1130C70DF91CF911F910F910895FF920F931F93CE
S1130C80CF93DF93EC018B01F42E8A85882321F026
S1130C901A86CE010E94CB0488EE92E00E940806D8
S1130CA0882349F08885882331F089858150898794
S1130CB0811101C018869A818B81981719F0CE0191
S1130CC00E94F003D80112968C91129713969C916E
S1130CD013978917E1F0F1101AC09091C00095FFA5
S1130CE016C0ED91FC91119791E0980F12969C9388
S1130CF01297E80FF11D80818093C60014968C91A1
S1130D00149712969C911297892312968C93DF91D3
S1130D10CF911F910F91FF900895CF93DF93EC0132
S1130D207D836C830E94E805688379838A839B832F
S1130D3081E08E83DF91CF910895FC01168208959E
S1130D40FC011086118612860895FC01928581E0CB
S1130D50911180E00895FC0182858830E9F4818551
S1130D6090E0DF01A80FB91F6C930196877090780B
S1130D70992324F40197886F9F6F0196818780855A
S1130D8090E0019687709078992324F40197886FF6
S1130D909F6F0196808715C0218530E0DF01A20F87
S1130DA0B31F6C932F5F3F4F27703078332334F495
S1130DB021503109286F3F6F2F5F3F4F21878F5F8D
S1130DC0828781E00895CF93409135034F5F67EBAD
S1130DD082EE92E00E944403C0E00DC0E091330330
S1130DE0EC0FE770F0E0E55DFC4F608182EE92E08D
S1130DF00E94A203CF5F80913503C81778F36091F6
S1130E00E70282EE92E00E94A203CF910895CF936D
S1130E10C82F42E063EB82EE92E00E9444036C2F01
S1130E2082EE92E00E94A2036091E70282EE92E0D9
S1130E300E94A203CF91089542E068EB82EE92E013
S1130E400E9444036091FF0282EE92E00E94A2039A
S1130E506091E70282EE92E00E94A20308950F934C
S1130E601F93CF93DF9380911B03882309F469C0F8
S1130E70809110030E946002882309F462C080916B
S1130E80480490914904A0914A04B0914B04AC01E8
S1130E90BD014E5051096109710943305105610585
S1130EA0710570F08C309105A105B10559F00997D1
S1130EB0A109B1090397A105B10530F0C0E005C04F
S1130EC0C1E003C0C2E001C0C3E0CC23A9F16C2F90
S1130ED08BE293E00E94AB0680913403882311F0E7
S1130EE0815001C087E090E021E0C13009F020E0AA
S1130EF0FC01E950FD4F208321E0C23009F020E0DD
S1130F00FC01E35CFC4F208321E0C33009F020E0C6
S1130F10FC01EA53FD4F20830BE113E0D1E0F8011B
S1130F20D2830E94E306F80113821482158211868B
S1130F3012861386D09311038C2F0E9407071092F8
S1130F401B03DF91CF911F910F91089580911B0393
S1130F50811109C0809110030E947302882319F043
S1130F6081E080931B030895CF938091110388231C
S1130F7009F46FC08BE293E00E94A506811169C059
S1130F808091EF0280FD65C08091EF0281FD61C018
S1130F9080911E03811109C0809147040E94600260
S1130FA0882319F081E080931E0380911E03882317
S1130FB009F44FC0809147040E947302882309F406
S1130FC048C0EBE1F3E01382C09133038185C80F7D
S1130FD0C770EC2FF0E0E950FD4F80818823A1F128
S1130FE060E08091D6020E94860B8091EF028160BE
S1130FF08093EF0266E970E080EF92E00E948D0634
S113100064EF71E089E093E00E948D0642E064EBB6
S113101082EE92E00E9444036DE082EE92E00E9430
S1131020A2036091E70282EE92E00E94A2030E9472
S1131030E3068091FF028F5F8093FF020E941C07EA
S1131040C093210310921103EBE1F3E081858F5FDC
S11310508187CF9108958091EF0280FF15C080EFC2
S113106092E00E940806882379F06AE58091D6020E
S11310700E94860B8091EF028E7F8093EF02809115
S1131080EF0282608093EF0208958091EF0281FF66
S113109042C0809147040E947302811106C089E016
S11310A093E00E9408068823B1F18091EF028D7FBE
S11310B08093EF0280EF92E00E949D06EBE1F3E063
S11310C0868190E0DC01A55DBC4F1C92DC01A95037
S11310D0BD4F1C92DC01A35CBC4F1C92DC01AA53E3
S11310E0BD4F1C9213828185882319F0815080930F
S11310F024038091330390E00196877090789923BC
S113110024F40197886F9F6F0196EBE2F3E08087E8
S11311108285815082870895CF938091110388231B
S113112009F46FC08BE293E00E94A506811169C0A7
S11311308091EF0282FD65C08091EF0283FD61C062
S113114080911F03811109C0809146040E946002AE
S1131150882319F081E080931F0380911F03882363
S113116009F44FC0809146040E947302882309F455
S113117048C0EBE1F3E01482C09133038285C80FC9
S1131180C770EC2FF0E0E35CFC4F80818823A1F171
S113119060E0809145030E94860B8091EF02846099
S11311A08093EF0266E970E08EEC92E00E948D0677
S11311B064EF71E082E193E00E948D0642E065EB0A
S11311C082EE92E00E9444036DE082EE92E00E947F
S11311D0A2036091E70282EE92E00E94A2030E94C1
S11311E0E3068091FF028F5F8093FF020E941C0739
S11311F0C093220310921103EBE1F3E082858F5F29
S11312008287CF9108958091EF0282FF15C08EEC02
S113121092E00E940806882379F06AE580914503EC
S11312200E94860B8091EF028B7F8093EF02809166
S1131230EF0288608093EF0208958091EF0283FFAC
S113124042C0809146040E947302811106C082E16B
S113125093E00E9408068823B1F18091EF02877F12
S11312608093EF028EEC92E00E949D06EBE1F3E0A6
S1131270878190E0DC01A55DBC4F1C92DC01A95084
S1131280BD4F1C92DC01A35CBC4F1C92DC01AA5331
S1131290BD4F1C9214828285882319F0815080935B
S11312A025038091330390E0019687709078992309
S11312B024F40197886F9F6F0196EBE2F3E0808737
S11312C08285815082870895CF938091110388236A
S11312D009F46FC08BE293E00E94A506811169C0F6
S11312E08091EF0284FD65C08091EF0285FD61C0AD
S11312F080912003811109C08091D5020E9460026F
S1131300882319F081E080932003809120038823AF
S113131009F44FC08091D5020E947302882309F416
S113132048C0EBE1F3E01582C09133038385C80F15
S1131330C770EC2FF0E0EA53FD4F80818823A1F1C0
S113134060E0809107030E94860B8091EF02806128
S11313508093EF0266E970E088EB91E00E948D06CD
S113136064EF71E08FEB91E00E948D0642E066EB42
S113137082EE92E00E9444036DE082EE92E00E94CD
S1131380A2036091E70282EE92E00E94A2030E940F
S1131390E3068091FF028F5F8093FF020E941C0787
S11313A0C093230310921103EBE1F3E083858F5F75
S11313B08387CF9108958091EF0284FF15C088EB55
S11313C091E00E940806882379F06AE5809107037A
S11313D00E94860B8091EF028F7E8093EF028091B2
S11313E0EF0280628093EF0208958091EF0285FFFF
S11313F042C08091D5020E947302811106C08FEB16
S113140091E00E9408068823B1F18091EF028F7D5C
S11314108093EF0288EB91E00E949D06EBE1F3E0FC
S1131420808590E0DC01A55DBC4F1C92DC01A950D5
S1131430BD4F1C92DC01A35CBC4F1C92DC01AA537F
S1131440BD4F1C9215828385882319F081508093A7
S113145026038091330390E0019687709078992356
S113146024F40197886F9F6F0196EBE2F3E0808785
S113147082858150828708950E942F070E94A607C3
S11314800E94B4070E942B080E9445080E948C0801
S11314900E9403090E941D090E9464090E94DB093D
S11314A00E94F509089584B1826284B984B18E7F63
S11314B084B90E942D030E9435030E945E0B62E0F2
S11314C089E290E00E9497018093100363E089E22F
S11314D090E00E9497018093470464E089E290E0E1
S11314E00E9497018093460465E089E290E00E949F
S11314F097018093D5026AE070E088EE92E00E9442
S1131500F30568EE73E086E393E00E94F30564EF6D
S113151071E080E093E00E94F305E7EDF2E086ECF1
S113152091E0918380838FEF8583138212821086EA
S11315301286E2EEF2E026E433E0318320838483F2
S1131540138212820E94AC0080E190E00E94D805D0
S11315508BE293E00E94A006EBE1F3E081E080835C
S11315601092EF021382148215821186128613865A
S11315701092FF021092110388E0E7EFF2E0DF011E
S1131580982F1D929A95E9F7EDE3F3E0DF01982F88
S11315901D929A95E9F7E6ECF2E0DF011D928A9537
S11315A0E9F760E88BE290E00E94610B8093D60239
S11315B060E185E290E00E94610B8093450368E05E
S11315C085E290E00E94610B809307036AE58091B5
S11315D0D6020E94860B6AE5809145030E94860B21
S11315E06AE5809107030E94860B789440E062EEDE
S11315F072E087ED92E00E943D068091080384FF2B
S11316003BC080E093E00E9408068823A9F145E0EE
S113161063EA82EE92E00E944403209148043091F0
S1131620490440914A0450914B04AAE3B0E00E945B
S1131630370C6093270370932803809329039093B6
S11316402A03C7E2D3E082EE92E00E94A2036981FA
S113165082EE92E00E94A2036A8182EE92E00E94EE
S1131660A2036B8182EE92E00E94A2036091E702E2
S113167082EE92E00E94A2030E94C7000E94200111
S1131680882381F00E9423012AE330E040E050E007
S11316900E940F0C209348043093490440934A0459
S11316A050934B0488EE92E00E940806882309F4C4
S11316B09DCF0E94EE010E943C0A98CF1092A30194
S11316C00895DC018091A3018430F0F4E82FF0E068
S11316D09F01220F331F220F331FE20FF31FEC551C
S11316E0FE4FB183A08362839AE093831482FD0149
S11316F09291962B90839C91609569236C9391E0D1
S1131700980F9093A30108958FEF0895CF93C82F56
S11317108091A301C81748F5653B08F064EB862F58
S113172090E0A0E0B0E0880F991FAA1FBB1F880FAC
S1131730991FAA1FBB1FBC01CD01660F771F881F0D
S1131740991F24EB30E040E050E00E940F0C285F2A
S11317508C2F90E0FC01EE0FFF1FEE0FFF1F8E0F8A
S11317609F1FFC01EC55FE4F2383CF91089520E089
S11317702DC0822F90E0FC01EE0FFF1FEE0FFF1F24
S1131780E80FF91FEC55FE4F34813323F1F031504B
S1131790FC01EE0FFF1FEE0FFF1FE80FF91FEC55C2
S11317A0FE4F3483311111C0FC01EE0FFF1FEE0F09
S11317B0FF1F8E0F9F1FFC01EC55FE4FA081B181CE
S11317C09C918281809589238C932F5F8091A301C2
S11317D0281778F290910001915090930001909114
S11317E0000191111BC09CE99093000190E014C08A
S11317F0E92FF0E09F01220F331F220F331FE20F66
S1131800F31FEC55FE4F23812483A081B1813C91C9
S11318102281232B2C939F5F981750F30895A1E204
S11318201A2EAA1BBB1BFD010DC0AA1FBB1FEE1F56
S1131830FF1FA217B307E407F50720F0A21BB30BA1
S1131840E40BF50B661F771F881F991F1A9469F71D
S113185060957095809590959B01AC01BD01CF0179
S11318600895EE0FFF1F0590F491E02D09940E9456
S1131870420CA59F900DB49F900DA49F800D911DC7
S113188011240895A29FB001B39FC001A39F700DBE
S1131890811D1124911DB29F700D811D1124911D74
S10918A00895F894FFCF47
S11118A69C45583130303932337630310A00E7
S9030000FC
